{
  "contractName": "KYCDocument",
  "abi": [
    {
      "inputs": [
        {
          "internalType": "address",
          "name": "",
          "type": "address"
        }
      ],
      "name": "documents",
      "outputs": [
        {
          "internalType": "string",
          "name": "",
          "type": "string"
        }
      ],
      "stateMutability": "view",
      "type": "function"
    },
    {
      "inputs": [
        {
          "internalType": "string",
          "name": "ipfsHash",
          "type": "string"
        }
      ],
      "name": "addDocument",
      "outputs": [],
      "stateMutability": "nonpayable",
      "type": "function"
    },
    {
      "inputs": [
        {
          "internalType": "address",
          "name": "user",
          "type": "address"
        }
      ],
      "name": "getDocument",
      "outputs": [
        {
          "internalType": "string",
          "name": "",
          "type": "string"
        }
      ],
      "stateMutability": "view",
      "type": "function"
    }
  ],
  "bytecode": "0x608060405234801561000f575f80fd5b5061082d8061001d5f395ff3fe608060405234801561000f575f80fd5b506004361061003f575f3560e01c806372e2a59e14610043578063cbe99b3914610073578063f740e045146100a3575b5f80fd5b61005d600480360381019061005891906102dd565b6100bf565b60405161006a9190610392565b60405180910390f35b61008d600480360381019061008891906102dd565b61018b565b60405161009a9190610392565b60405180910390f35b6100bd60048036038101906100b891906104de565b610225565b005b60605f808373ffffffffffffffffffffffffffffffffffffffff1673ffffffffffffffffffffffffffffffffffffffff1681526020019081526020015f20805461010890610552565b80601f016020809104026020016040519081016040528092919081815260200182805461013490610552565b801561017f5780601f106101565761010080835404028352916020019161017f565b820191905f5260205f20905b81548152906001019060200180831161016257829003601f168201915b50505050509050919050565b5f602052805f5260405f205f9150905080546101a690610552565b80601f01602080910402602001604051908101604052809291908181526020018280546101d290610552565b801561021d5780601f106101f45761010080835404028352916020019161021d565b820191905f5260205f20905b81548152906001019060200180831161020057829003601f168201915b505050505081565b805f803373ffffffffffffffffffffffffffffffffffffffff1673ffffffffffffffffffffffffffffffffffffffff1681526020019081526020015f20908161026e9190610728565b5050565b5f604051905090565b5f80fd5b5f80fd5b5f73ffffffffffffffffffffffffffffffffffffffff82169050919050565b5f6102ac82610283565b9050919050565b6102bc816102a2565b81146102c6575f80fd5b50565b5f813590506102d7816102b3565b92915050565b5f602082840312156102f2576102f161027b565b5b5f6102ff848285016102c9565b91505092915050565b5f81519050919050565b5f82825260208201905092915050565b5f5b8381101561033f578082015181840152602081019050610324565b5f8484015250505050565b5f601f19601f8301169050919050565b5f61036482610308565b61036e8185610312565b935061037e818560208601610322565b6103878161034a565b840191505092915050565b5f6020820190508181035f8301526103aa818461035a565b905092915050565b5f80fd5b5f80fd5b7f4e487b71000000000000000000000000000000000000000000000000000000005f52604160045260245ffd5b6103f08261034a565b810181811067ffffffffffffffff8211171561040f5761040e6103ba565b5b80604052505050565b5f610421610272565b905061042d82826103e7565b919050565b5f67ffffffffffffffff82111561044c5761044b6103ba565b5b6104558261034a565b9050602081019050919050565b828183375f83830152505050565b5f61048261047d84610432565b610418565b90508281526020810184848401111561049e5761049d6103b6565b5b6104a9848285610462565b509392505050565b5f82601f8301126104c5576104c46103b2565b5b81356104d5848260208601610470565b91505092915050565b5f602082840312156104f3576104f261027b565b5b5f82013567ffffffffffffffff8111156105105761050f61027f565b5b61051c848285016104b1565b91505092915050565b7f4e487b71000000000000000000000000000000000000000000000000000000005f52602260045260245ffd5b5f600282049050600182168061056957607f821691505b60208210810361057c5761057b610525565b5b50919050565b5f819050815f5260205f209050919050565b5f6020601f8301049050919050565b5f82821b905092915050565b5f600883026105de7fffffffffffffffffffffffffffffffffffffffffffffffffffffffffffffffff826105a3565b6105e886836105a3565b95508019841693508086168417925050509392505050565b5f819050919050565b5f819050919050565b5f61062c61062761062284610600565b610609565b610600565b9050919050565b5f819050919050565b61064583610612565b61065961065182610633565b8484546105af565b825550505050565b5f90565b61066d610661565b61067881848461063c565b505050565b5b8181101561069b576106905f82610665565b60018101905061067e565b5050565b601f8211156106e0576106b181610582565b6106ba84610594565b810160208510156106c9578190505b6106dd6106d585610594565b83018261067d565b50505b505050565b5f82821c905092915050565b5f6107005f19846008026106e5565b1980831691505092915050565b5f61071883836106f1565b9150826002028217905092915050565b61073182610308565b67ffffffffffffffff81111561074a576107496103ba565b5b6107548254610552565b61075f82828561069f565b5f60209050601f831160018114610790575f841561077e578287015190505b610788858261070d565b8655506107ef565b601f19841661079e86610582565b5f5b828110156107c5578489015182556001820191506020850194506020810190506107a0565b868310156107e257848901516107de601f8916826106f1565b8355505b6001600288020188555050505b50505050505056fea264697066735822122055b32066ceecc23f39c2158995ee7939eee3866f618406ad3a63f10e4413d92d64736f6c63430008150033",
  "immutableReferences": {},
  "source": "// SPDX-License-Identifier: MIT\npragma solidity ^0.8.0;\n\ncontract KYCDocument {\n    mapping(address => string) public documents;\n\n    function addDocument(string memory ipfsHash) public {\n        documents[msg.sender] = ipfsHash;\n    }\n\n    function getDocument(address user) public view returns (string memory) {\n        return documents[user];\n    }\n}\n",
  "sourcePath": "/home/ubuntu/FinalProject/KYC-verification-using-Blockchain/contracts/KYCDocument.sol",
  "compiler": {
    "name": "solc",
    "version": "0.8.21+commit.d9974bed.Emscripten.clang"
  },
  "schemaVersion": "3.4.16",
  "updatedAt": "2024-06-18T09:33:01.866Z",
  "devdoc": {
    "kind": "dev",
    "methods": {},
    "version": 1
  },
  "userdoc": {
    "kind": "user",
    "methods": {},
    "version": 1
  }
}