{
  "contractName": "KYCDocument",
  "abi": [
    {
      "inputs": [
        {
          "internalType": "address",
          "name": "",
          "type": "address"
        }
      ],
      "name": "documents",
      "outputs": [
        {
          "internalType": "string",
          "name": "",
          "type": "string"
        }
      ],
      "stateMutability": "view",
      "type": "function",
      "constant": true
    },
    {
      "inputs": [
        {
          "internalType": "string",
          "name": "ipfsHash",
          "type": "string"
        }
      ],
      "name": "addDocument",
      "outputs": [],
      "stateMutability": "nonpayable",
      "type": "function"
    },
    {
      "inputs": [
        {
          "internalType": "address",
          "name": "user",
          "type": "address"
        }
      ],
      "name": "getDocument",
      "outputs": [
        {
          "internalType": "string",
          "name": "",
          "type": "string"
        }
      ],
      "stateMutability": "view",
      "type": "function",
      "constant": true
    }
  ],
  "bytecode": "0x608060405234801561001057600080fd5b5061064c806100206000396000f3fe608060405234801561001057600080fd5b50600436106100415760003560e01c806372e2a59e14610046578063cbe99b3914610076578063f740e045146100a6575b600080fd5b610060600480360381019061005b91906103a8565b6100c2565b60405161006d919061044b565b60405180910390f35b610090600480360381019061008b91906103a8565b610192565b60405161009d919061044b565b60405180910390f35b6100c060048036038101906100bb91906103d1565b610232565b005b60606000808373ffffffffffffffffffffffffffffffffffffffff1673ffffffffffffffffffffffffffffffffffffffff168152602001908152602001600020805461010d9061055e565b80601f01602080910402602001604051908101604052809291908181526020018280546101399061055e565b80156101865780601f1061015b57610100808354040283529160200191610186565b820191906000526020600020905b81548152906001019060200180831161016957829003601f168201915b50505050509050919050565b600060205280600052604060002060009150905080546101b19061055e565b80601f01602080910402602001604051908101604052809291908181526020018280546101dd9061055e565b801561022a5780601f106101ff5761010080835404028352916020019161022a565b820191906000526020600020905b81548152906001019060200180831161020d57829003601f168201915b505050505081565b806000803373ffffffffffffffffffffffffffffffffffffffff1673ffffffffffffffffffffffffffffffffffffffff1681526020019081526020016000209080519060200190610284929190610288565b5050565b8280546102949061055e565b90600052602060002090601f0160209004810192826102b657600085556102fd565b82601f106102cf57805160ff19168380011785556102fd565b828001600101855582156102fd579182015b828111156102fc5782518255916020019190600101906102e1565b5b50905061030a919061030e565b5090565b5b8082111561032757600081600090555060010161030f565b5090565b600061033e6103398461049e565b61046d565b90508281526020810184848401111561035657600080fd5b61036184828561051c565b509392505050565b600081359050610378816105ff565b92915050565b600082601f83011261038f57600080fd5b813561039f84826020860161032b565b91505092915050565b6000602082840312156103ba57600080fd5b60006103c884828501610369565b91505092915050565b6000602082840312156103e357600080fd5b600082013567ffffffffffffffff8111156103fd57600080fd5b6104098482850161037e565b91505092915050565b600061041d826104ce565b61042781856104d9565b935061043781856020860161052b565b610440816105ee565b840191505092915050565b600060208201905081810360008301526104658184610412565b905092915050565b6000604051905081810181811067ffffffffffffffff82111715610494576104936105bf565b5b8060405250919050565b600067ffffffffffffffff8211156104b9576104b86105bf565b5b601f19601f8301169050602081019050919050565b600081519050919050565b600082825260208201905092915050565b60006104f5826104fc565b9050919050565b600073ffffffffffffffffffffffffffffffffffffffff82169050919050565b82818337600083830152505050565b60005b8381101561054957808201518184015260208101905061052e565b83811115610558576000848401525b50505050565b6000600282049050600182168061057657607f821691505b6020821081141561058a57610589610590565b5b50919050565b7f4e487b7100000000000000000000000000000000000000000000000000000000600052602260045260246000fd5b7f4e487b7100000000000000000000000000000000000000000000000000000000600052604160045260246000fd5b6000601f19601f8301169050919050565b610608816104ea565b811461061357600080fd5b5056fea264697066735822122056820c88dbcd78abda8d70809bcfb7c45b989a1afcaef63a77c79c61aa69d06e64736f6c63430008000033",
  "immutableReferences": {},
  "source": "// SPDX-License-Identifier: MIT\npragma solidity ^0.8.0;\n\ncontract KYCDocument {\n    mapping(address => string) public documents;\n\n    function addDocument(string memory ipfsHash) public {\n        documents[msg.sender] = ipfsHash;\n    }\n\n    function getDocument(address user) public view returns (string memory) {\n        return documents[user];\n    }\n}\n",
  "sourcePath": "/home/ubuntu/FinalProject/KYC-verification-using-Blockchain/contracts/KYCDocument.sol",
  "compiler": {
    "name": "solc",
    "version": "0.8.0+commit.c7dfd78e.Emscripten.clang"
  },
  "schemaVersion": "3.4.16",
  "updatedAt": "2024-06-22T01:38:27.132Z",
  "networkType": "ethereum",
  "devdoc": {
    "kind": "dev",
    "methods": {},
    "version": 1
  },
  "userdoc": {
    "kind": "user",
    "methods": {},
    "version": 1
  }
}